2055447772100917000000195726021AAD120150820001          00100000000065104142015082020157036794Integra                                 200901000000314119502LIQUIDACIONAAD20150820                  0001
2055447772100917000000195726021AAD120150820002          00100000000026982762015082020142829551Profuturo                               200917000000010449322LIQUIDACIONAAD20150820                  0001
2055447772100917000000195726021AAD120150820003          00100000000088398242015082020510398158Prima                                   200917000000173820826LIQUIDACIONAAD20150820                  0001
